{
  "_format": "hh-sol-artifact-1",
  "contractName": "MockTimeFeed",
  "sourceName": "contracts/MockTimeFeed.sol",
  "abi": [
    {
      "inputs": [
        {
          "internalType": "int256",
          "name": "_initialTime",
          "type": "int256"
        }
      ],
      "stateMutability": "nonpayable",
      "type": "constructor"
    },
    {
      "inputs": [],
      "name": "decimals",
      "outputs": [
        {
          "internalType": "uint8",
          "name": "",
          "type": "uint8"
        }
      ],
      "stateMutability": "view",
      "type": "function"
    },
    {
      "inputs": [],
      "name": "description",
      "outputs": [
        {
          "internalType": "string",
          "name": "",
          "type": "string"
        }
      ],
      "stateMutability": "view",
      "type": "function"
    },
    {
      "inputs": [
        {
          "internalType": "uint80",
          "name": "_roundId",
          "type": "uint80"
        }
      ],
      "name": "getRoundData",
      "outputs": [
        {
          "internalType": "uint80",
          "name": "roundId",
          "type": "uint80"
        },
        {
          "internalType": "int256",
          "name": "answer",
          "type": "int256"
        },
        {
          "internalType": "uint256",
          "name": "startedAt",
          "type": "uint256"
        },
        {
          "internalType": "uint256",
          "name": "updatedAt",
          "type": "uint256"
        },
        {
          "internalType": "uint80",
          "name": "answeredInRound",
          "type": "uint80"
        }
      ],
      "stateMutability": "view",
      "type": "function"
    },
    {
      "inputs": [],
      "name": "latestRoundData",
      "outputs": [
        {
          "internalType": "uint80",
          "name": "roundId",
          "type": "uint80"
        },
        {
          "internalType": "int256",
          "name": "answer",
          "type": "int256"
        },
        {
          "internalType": "uint256",
          "name": "startedAt",
          "type": "uint256"
        },
        {
          "internalType": "uint256",
          "name": "updatedAt",
          "type": "uint256"
        },
        {
          "internalType": "uint80",
          "name": "answeredInRound",
          "type": "uint80"
        }
      ],
      "stateMutability": "view",
      "type": "function"
    },
    {
      "inputs": [
        {
          "internalType": "int256",
          "name": "_newTime",
          "type": "int256"
        }
      ],
      "name": "setCurrentTime",
      "outputs": [],
      "stateMutability": "nonpayable",
      "type": "function"
    },
    {
      "inputs": [],
      "name": "version",
      "outputs": [
        {
          "internalType": "uint256",
          "name": "",
          "type": "uint256"
        }
      ],
      "stateMutability": "view",
      "type": "function"
    }
  ],
  "bytecode": "0x6080604052348015600f57600080fd5b5060405161050d38038061050d8339818101604052810190602f91906071565b80600081905550506099565b600080fd5b6000819050919050565b6051816040565b8114605b57600080fd5b50565b600081519050606b81604a565b92915050565b6000602082840312156084576083603b565b5b6000609084828501605e565b91505092915050565b610465806100a86000396000f3fe608060405234801561001057600080fd5b50600436106100625760003560e01c8063313ce5671461006757806354fd4d50146100855780636aee80db146100a35780637284e416146100bf5780639a6fc8f5146100dd578063feaf968c14610111575b600080fd5b61006f610133565b60405161007c91906101e6565b60405180910390f35b61008d610138565b60405161009a919061021a565b60405180910390f35b6100bd60048036038101906100b89190610270565b61013d565b005b6100c7610147565b6040516100d4919061032d565b60405180910390f35b6100f760048036038101906100f29190610391565b610184565b6040516101089594939291906103dc565b60405180910390f35b6101196101a8565b60405161012a9594939291906103dc565b60405180910390f35b600090565b600090565b8060008190555050565b60606040518060400160405280600e81526020017f4d6f636b2054696d652046656564000000000000000000000000000000000000815250905090565b60008060008060008060005460008060009450945094509450945091939590929450565b6000806000806000806000546000806000945094509450945094509091929394565b600060ff82169050919050565b6101e0816101ca565b82525050565b60006020820190506101fb60008301846101d7565b92915050565b6000819050919050565b61021481610201565b82525050565b600060208201905061022f600083018461020b565b92915050565b600080fd5b6000819050919050565b61024d8161023a565b811461025857600080fd5b50565b60008135905061026a81610244565b92915050565b60006020828403121561028657610285610235565b5b60006102948482850161025b565b91505092915050565b600081519050919050565b600082825260208201905092915050565b60005b838110156102d75780820151818401526020810190506102bc565b60008484015250505050565b6000601f19601f8301169050919050565b60006102ff8261029d565b61030981856102a8565b93506103198185602086016102b9565b610322816102e3565b840191505092915050565b6000602082019050818103600083015261034781846102f4565b905092915050565b600069ffffffffffffffffffff82169050919050565b61036e8161034f565b811461037957600080fd5b50565b60008135905061038b81610365565b92915050565b6000602082840312156103a7576103a6610235565b5b60006103b58482850161037c565b91505092915050565b6103c78161034f565b82525050565b6103d68161023a565b82525050565b600060a0820190506103f160008301886103be565b6103fe60208301876103cd565b61040b604083018661020b565b610418606083018561020b565b61042560808301846103be565b969550505050505056fea2646970667358221220a20702a7ac794541da50000dfad370e5a05575067a4fc72e6f461c1079fe2e1f64736f6c634300081a0033",
  "linkReferences": {},
  "deployedLinkReferences": {}
}