{
  "_format": "hh-sol-artifact-1",
  "contractName": "SubscriptionService",
  "sourceName": "contracts/SubscriptionRepository.sol",
  "abi": [
    {
      "inputs": [
        {
          "internalType": "uint256",
          "name": "_subscriptionFee",
          "type": "uint256"
        }
      ],
      "stateMutability": "nonpayable",
      "type": "constructor"
    },
    {
      "anonymous": false,
      "inputs": [
        {
          "indexed": true,
          "internalType": "address",
          "name": "subscriber",
          "type": "address"
        }
      ],
      "name": "Destroyed",
      "type": "event"
    },
    {
      "anonymous": false,
      "inputs": [
        {
          "indexed": true,
          "internalType": "address",
          "name": "subscriber",
          "type": "address"
        },
        {
          "indexed": false,
          "internalType": "uint256",
          "name": "amount",
          "type": "uint256"
        },
        {
          "indexed": false,
          "internalType": "uint256",
          "name": "subscriptionDue",
          "type": "uint256"
        }
      ],
      "name": "Payment",
      "type": "event"
    },
    {
      "anonymous": false,
      "inputs": [
        {
          "indexed": true,
          "internalType": "address",
          "name": "subscriber",
          "type": "address"
        },
        {
          "indexed": false,
          "internalType": "uint256",
          "name": "subscriptionDue",
          "type": "uint256"
        },
        {
          "indexed": false,
          "internalType": "string",
          "name": "email",
          "type": "string"
        },
        {
          "indexed": false,
          "internalType": "string",
          "name": "firstName",
          "type": "string"
        },
        {
          "indexed": false,
          "internalType": "string",
          "name": "lastName",
          "type": "string"
        }
      ],
      "name": "Subscribed",
      "type": "event"
    },
    {
      "anonymous": false,
      "inputs": [
        {
          "indexed": false,
          "internalType": "uint256",
          "name": "newFee",
          "type": "uint256"
        }
      ],
      "name": "SubscriptionFeeUpdated",
      "type": "event"
    },
    {
      "anonymous": false,
      "inputs": [
        {
          "indexed": true,
          "internalType": "address",
          "name": "subscriber",
          "type": "address"
        }
      ],
      "name": "Unsubscribed",
      "type": "event"
    },
    {
      "inputs": [
        {
          "internalType": "address",
          "name": "subscriber",
          "type": "address"
        }
      ],
      "name": "checkSubscription",
      "outputs": [
        {
          "internalType": "bool",
          "name": "isActive",
          "type": "bool"
        },
        {
          "internalType": "uint256",
          "name": "subscriptionDue",
          "type": "uint256"
        },
        {
          "internalType": "string",
          "name": "email",
          "type": "string"
        },
        {
          "internalType": "string",
          "name": "firstName",
          "type": "string"
        },
        {
          "internalType": "string",
          "name": "lastName",
          "type": "string"
        }
      ],
      "stateMutability": "view",
      "type": "function"
    },
    {
      "inputs": [],
      "name": "getAllSubscribers",
      "outputs": [
        {
          "components": [
            {
              "internalType": "address",
              "name": "subscriberAddress",
              "type": "address"
            },
            {
              "internalType": "uint256",
              "name": "subscriptionDue",
              "type": "uint256"
            },
            {
              "internalType": "bool",
              "name": "isSubscribed",
              "type": "bool"
            },
            {
              "internalType": "string",
              "name": "email",
              "type": "string"
            },
            {
              "internalType": "string",
              "name": "firstName",
              "type": "string"
            },
            {
              "internalType": "string",
              "name": "lastName",
              "type": "string"
            },
            {
              "internalType": "bool",
              "name": "isSubscriptionActive",
              "type": "bool"
            }
          ],
          "internalType": "struct SubscriptionService.SubscriberInfo[]",
          "name": "",
          "type": "tuple[]"
        }
      ],
      "stateMutability": "view",
      "type": "function"
    },
    {
      "inputs": [
        {
          "internalType": "address",
          "name": "",
          "type": "address"
        }
      ],
      "name": "isAddressInList",
      "outputs": [
        {
          "internalType": "bool",
          "name": "",
          "type": "bool"
        }
      ],
      "stateMutability": "view",
      "type": "function"
    },
    {
      "inputs": [],
      "name": "isOwner",
      "outputs": [
        {
          "internalType": "bool",
          "name": "",
          "type": "bool"
        }
      ],
      "stateMutability": "view",
      "type": "function"
    },
    {
      "inputs": [
        {
          "internalType": "address",
          "name": "user",
          "type": "address"
        }
      ],
      "name": "isSubscribedUser",
      "outputs": [
        {
          "internalType": "bool",
          "name": "",
          "type": "bool"
        }
      ],
      "stateMutability": "view",
      "type": "function"
    },
    {
      "inputs": [],
      "name": "makePayment",
      "outputs": [],
      "stateMutability": "payable",
      "type": "function"
    },
    {
      "inputs": [],
      "name": "owner",
      "outputs": [
        {
          "internalType": "address payable",
          "name": "",
          "type": "address"
        }
      ],
      "stateMutability": "view",
      "type": "function"
    },
    {
      "inputs": [],
      "name": "selfDestructContract",
      "outputs": [],
      "stateMutability": "payable",
      "type": "function"
    },
    {
      "inputs": [
        {
          "internalType": "string",
          "name": "email",
          "type": "string"
        },
        {
          "internalType": "string",
          "name": "firstName",
          "type": "string"
        },
        {
          "internalType": "string",
          "name": "lastName",
          "type": "string"
        }
      ],
      "name": "subscribe",
      "outputs": [],
      "stateMutability": "payable",
      "type": "function"
    },
    {
      "inputs": [
        {
          "internalType": "uint256",
          "name": "",
          "type": "uint256"
        }
      ],
      "name": "subscriberAddresses",
      "outputs": [
        {
          "internalType": "address",
          "name": "",
          "type": "address"
        }
      ],
      "stateMutability": "view",
      "type": "function"
    },
    {
      "inputs": [
        {
          "internalType": "address",
          "name": "",
          "type": "address"
        }
      ],
      "name": "subscribers",
      "outputs": [
        {
          "internalType": "uint256",
          "name": "subscriptionDue",
          "type": "uint256"
        },
        {
          "internalType": "bool",
          "name": "isSubscribed",
          "type": "bool"
        },
        {
          "internalType": "string",
          "name": "email",
          "type": "string"
        },
        {
          "internalType": "string",
          "name": "firstName",
          "type": "string"
        },
        {
          "internalType": "string",
          "name": "lastName",
          "type": "string"
        }
      ],
      "stateMutability": "view",
      "type": "function"
    },
    {
      "inputs": [],
      "name": "subscriptionFee",
      "outputs": [
        {
          "internalType": "uint256",
          "name": "",
          "type": "uint256"
        }
      ],
      "stateMutability": "view",
      "type": "function"
    },
    {
      "inputs": [],
      "name": "subscriptionPeriod",
      "outputs": [
        {
          "internalType": "uint256",
          "name": "",
          "type": "uint256"
        }
      ],
      "stateMutability": "view",
      "type": "function"
    },
    {
      "inputs": [],
      "name": "unsubscribe",
      "outputs": [],
      "stateMutability": "nonpayable",
      "type": "function"
    },
    {
      "inputs": [
        {
          "internalType": "uint256",
          "name": "newFee",
          "type": "uint256"
        }
      ],
      "name": "updateSubscriptionFee",
      "outputs": [],
      "stateMutability": "nonpayable",
      "type": "function"
    },
    {
      "inputs": [],
      "name": "withdrawFunds",
      "outputs": [],
      "stateMutability": "nonpayable",
      "type": "function"
    }
  ],
  "bytecode": "0x60a060405234801561001057600080fd5b50604051612cb3380380612cb3833981810160405281019061003291906100ae565b3373ffffffffffffffffffffffffffffffffffffffff1660808173ffffffffffffffffffffffffffffffffffffffff168152505080600081905550506100db565b600080fd5b6000819050919050565b61008b81610078565b811461009657600080fd5b50565b6000815190506100a881610082565b92915050565b6000602082840312156100c4576100c3610073565b5b60006100d284828501610099565b91505092915050565b608051612b8c6101276000396000818161039c0152818161042a01528181610986015281816109ac01528181610a2201528181610e8e01528181610f5d0152610feb0152612b8c6000f3fe6080604052600436106100f35760003560e01c80638f32d59b1161008a578063c1e232bd11610059578063c1e232bd14610348578063d8d7970014610352578063f260d4151461035c578063fcae448414610378576100f3565b80638f32d59b1461028c5780639aba046c146102b7578063ac6d0fa4146102f4578063b97ff1141461031f576100f3565b806341fe05f2116100c657806341fe05f2146101a25780634f62647e146101df5780635745ae28146102205780638da5cb5b14610261576100f3565b80630aa0a175146100f85780630ca2822c1461012357806324600fc31461014e578063332a0aa214610165575b600080fd5b34801561010457600080fd5b5061010d61038f565b60405161011a9190611adb565b60405180910390f35b34801561012f57600080fd5b50610138610395565b6040516101459190611adb565b60405180910390f35b34801561015a57600080fd5b5061016361039a565b005b34801561017157600080fd5b5061018c60048036038101906101879190611b2c565b610491565b6040516101999190611b9a565b60405180910390f35b3480156101ae57600080fd5b506101c960048036038101906101c49190611be1565b6104d0565b6040516101d69190611c29565b60405180910390f35b3480156101eb57600080fd5b5061020660048036038101906102019190611be1565b610529565b604051610217959493929190611cd4565b60405180910390f35b34801561022c57600080fd5b5061024760048036038101906102429190611be1565b6107a9565b604051610258959493929190611d3c565b60405180910390f35b34801561026d57600080fd5b50610276610984565b6040516102839190611dc5565b60405180910390f35b34801561029857600080fd5b506102a16109a8565b6040516102ae9190611c29565b60405180910390f35b3480156102c357600080fd5b506102de60048036038101906102d99190611be1565b6109fe565b6040516102eb9190611c29565b60405180910390f35b34801561030057600080fd5b50610309610a1e565b6040516103169190611fc3565b60405180910390f35b34801561032b57600080fd5b5061034660048036038101906103419190611b2c565b610e8c565b005b610350610f5b565b005b61035a611022565b005b6103766004803603810190610371919061204a565b61126e565b005b34801561038457600080fd5b5061038d611842565b005b60005481565b603c81565b7f000000000000000000000000000000000000000000000000000000000000000073ffffffffffffffffffffffffffffffffffffffff163373ffffffffffffffffffffffffffffffffffffffff1614610428576040517f08c379a000000000000000000000000000000000000000000000000000000000815260040161041f90612170565b60405180910390fd5b7f000000000000000000000000000000000000000000000000000000000000000073ffffffffffffffffffffffffffffffffffffffff166108fc479081150290604051600060405180830381858888f1935050505015801561048e573d6000803e3d6000fd5b50565b600381815481106104a157600080fd5b906000526020600020016000915054906101000a900473ffffffffffffffffffffffffffffffffffffffff1681565b6000600260008373ffffffffffffffffffffffffffffffffffffffff1673ffffffffffffffffffffffffffffffffffffffff16815260200190815260200160002060010160009054906101000a900460ff169050919050565b60008060608060606000600260008873ffffffffffffffffffffffffffffffffffffffff1673ffffffffffffffffffffffffffffffffffffffff1681526020019081526020016000206040518060a0016040529081600082015481526020016001820160009054906101000a900460ff161515151581526020016002820180546105b2906121bf565b80601f01602080910402602001604051908101604052809291908181526020018280546105de906121bf565b801561062b5780601f106106005761010080835404028352916020019161062b565b820191906000526020600020905b81548152906001019060200180831161060e57829003601f168201915b50505050508152602001600382018054610644906121bf565b80601f0160208091040260200160405190810160405280929190818152602001828054610670906121bf565b80156106bd5780601f10610692576101008083540402835291602001916106bd565b820191906000526020600020905b8154815290600101906020018083116106a057829003601f168201915b505050505081526020016004820180546106d6906121bf565b80601f0160208091040260200160405190810160405280929190818152602001828054610702906121bf565b801561074f5780601f106107245761010080835404028352916020019161074f565b820191906000526020600020905b81548152906001019060200180831161073257829003601f168201915b505050505081525050905060006107646119c9565b905060008260200151801561077c5750826000015182105b90508083600001518460400151856060015186608001519750975097509750975050505091939590929450565b60026020528060005260406000206000915090508060000154908060010160009054906101000a900460ff16908060020180546107e5906121bf565b80601f0160208091040260200160405190810160405280929190818152602001828054610811906121bf565b801561085e5780601f106108335761010080835404028352916020019161085e565b820191906000526020600020905b81548152906001019060200180831161084157829003601f168201915b505050505090806003018054610873906121bf565b80601f016020809104026020016040519081016040528092919081815260200182805461089f906121bf565b80156108ec5780601f106108c1576101008083540402835291602001916108ec565b820191906000526020600020905b8154815290600101906020018083116108cf57829003601f168201915b505050505090806004018054610901906121bf565b80601f016020809104026020016040519081016040528092919081815260200182805461092d906121bf565b801561097a5780601f1061094f5761010080835404028352916020019161097a565b820191906000526020600020905b81548152906001019060200180831161095d57829003601f168201915b5050505050905085565b7f000000000000000000000000000000000000000000000000000000000000000081565b60007f000000000000000000000000000000000000000000000000000000000000000073ffffffffffffffffffffffffffffffffffffffff163373ffffffffffffffffffffffffffffffffffffffff1614905090565b60016020528060005260406000206000915054906101000a900460ff1681565b60607f000000000000000000000000000000000000000000000000000000000000000073ffffffffffffffffffffffffffffffffffffffff163373ffffffffffffffffffffffffffffffffffffffff1614610aae576040517f08c379a0000000000000000000000000000000000000000000000000000000008152600401610aa590612170565b60405180910390fd5b600060038054905011610af6576040517f08c379a0000000000000000000000000000000000000000000000000000000008152600401610aed9061223c565b60405180910390fd5b6000600380549050905060008167ffffffffffffffff811115610b1c57610b1b61225c565b5b604051908082528060200260200182016040528015610b5557816020015b610b42611a6b565b815260200190600190039081610b3a5790505b50905060005b82811015610e8357600060038281548110610b7957610b7861228b565b5b9060005260206000200160009054906101000a900473ffffffffffffffffffffffffffffffffffffffff1690506000600260008373ffffffffffffffffffffffffffffffffffffffff1673ffffffffffffffffffffffffffffffffffffffff1681526020019081526020016000206040518060a0016040529081600082015481526020016001820160009054906101000a900460ff16151515158152602001600282018054610c27906121bf565b80601f0160208091040260200160405190810160405280929190818152602001828054610c53906121bf565b8015610ca05780601f10610c7557610100808354040283529160200191610ca0565b820191906000526020600020905b815481529060010190602001808311610c8357829003601f168201915b50505050508152602001600382018054610cb9906121bf565b80601f0160208091040260200160405190810160405280929190818152602001828054610ce5906121bf565b8015610d325780601f10610d0757610100808354040283529160200191610d32565b820191906000526020600020905b815481529060010190602001808311610d1557829003601f168201915b50505050508152602001600482018054610d4b906121bf565b80601f0160208091040260200160405190810160405280929190818152602001828054610d77906121bf565b8015610dc45780601f10610d9957610100808354040283529160200191610dc4565b820191906000526020600020905b815481529060010190602001808311610da757829003601f168201915b50505050508152505090506000610dd96119c9565b9050600082602001518015610df15750826000015182105b90506040518060e001604052808573ffffffffffffffffffffffffffffffffffffffff16815260200184600001518152602001846020015115158152602001846040015181526020018460600151815260200184608001518152602001821515815250868681518110610e6757610e6661228b565b5b6020026020010181905250505050508080600101915050610b5b565b50809250505090565b7f000000000000000000000000000000000000000000000000000000000000000073ffffffffffffffffffffffffffffffffffffffff163373ffffffffffffffffffffffffffffffffffffffff1614610f1a576040517f08c379a0000000000000000000000000000000000000000000000000000000008152600401610f1190612170565b60405180910390fd5b806000819055507f514d329e05b942688b1a4faea81afa667f0b05e76ba9f908e8d7b17a8d8b474081604051610f509190611adb565b60405180910390a150565b7f000000000000000000000000000000000000000000000000000000000000000073ffffffffffffffffffffffffffffffffffffffff163373ffffffffffffffffffffffffffffffffffffffff1614610fe9576040517f08c379a0000000000000000000000000000000000000000000000000000000008152600401610fe090612170565b60405180910390fd5b7f000000000000000000000000000000000000000000000000000000000000000073ffffffffffffffffffffffffffffffffffffffff16ff5b600260003373ffffffffffffffffffffffffffffffffffffffff1673ffffffffffffffffffffffffffffffffffffffff16815260200190815260200160002060010160009054906101000a900460ff166110b1576040517f08c379a00000000000000000000000000000000000000000000000000000000081526004016110a89061232c565b60405180910390fd5b60005434146110f5576040517f08c379a00000000000000000000000000000000000000000000000000000000081526004016110ec90612398565b60405180910390fd5b60006110ff6119c9565b9050600260003373ffffffffffffffffffffffffffffffffffffffff1673ffffffffffffffffffffffffffffffffffffffff16815260200190815260200160002060000154811015611186576040517f08c379a000000000000000000000000000000000000000000000000000000000815260040161117d90612404565b60405180910390fd5b603c816111939190612453565b600260003373ffffffffffffffffffffffffffffffffffffffff1673ffffffffffffffffffffffffffffffffffffffff168152602001908152602001600020600001819055503373ffffffffffffffffffffffffffffffffffffffff167f9643c1b5b172b26d5f028be7fe646349bd5e3cd9367bb18f9e825afa828b7d9334600260003373ffffffffffffffffffffffffffffffffffffffff1673ffffffffffffffffffffffffffffffffffffffff16815260200190815260200160002060000154604051611263929190612487565b60405180910390a250565b60005434146112b2576040517f08c379a00000000000000000000000000000000000000000000000000000000081526004016112a990612398565b60405180910390fd5b600260003373ffffffffffffffffffffffffffffffffffffffff1673ffffffffffffffffffffffffffffffffffffffff16815260200190815260200160002060010160009054906101000a900460ff1615611342576040517f08c379a0000000000000000000000000000000000000000000000000000000008152600401611339906124fc565b60405180910390fd5b600086869050118015611359575060648686905011155b611398576040517f08c379a000000000000000000000000000000000000000000000000000000000815260040161138f9061258e565b60405180910390fd5b6000848490501180156113af575060328484905011155b6113ee576040517f08c379a00000000000000000000000000000000000000000000000000000000081526004016113e590612620565b60405180910390fd5b600082829050118015611405575060328282905011155b611444576040517f08c379a000000000000000000000000000000000000000000000000000000000815260040161143b906126b2565b60405180910390fd5b61149186868080601f016020809104026020016040519081016040528093929190818152602001838380828437600081840152601f19601f820116905080830192505050505050506119d1565b6114d0576040517f08c379a00000000000000000000000000000000000000000000000000000000081526004016114c79061271e565b60405180910390fd5b600160003373ffffffffffffffffffffffffffffffffffffffff1673ffffffffffffffffffffffffffffffffffffffff16815260200190815260200160002060009054906101000a900460ff161561155d576040517f08c379a00000000000000000000000000000000000000000000000000000000081526004016115549061278a565b60405180910390fd5b60006115676119c9565b90506040518060a00160405280603c836115819190612453565b815260200160011515815260200188888080601f016020809104026020016040519081016040528093929190818152602001838380828437600081840152601f19601f82011690508083019250505050505050815260200186868080601f016020809104026020016040519081016040528093929190818152602001838380828437600081840152601f19601f82011690508083019250505050505050815260200184848080601f016020809104026020016040519081016040528093929190818152602001838380828437600081840152601f19601f82011690508083019250505050505050815250600260003373ffffffffffffffffffffffffffffffffffffffff1673ffffffffffffffffffffffffffffffffffffffff1681526020019081526020016000206000820151816000015560208201518160010160006101000a81548160ff02191690831515021790555060408201518160020190816116e99190612956565b5060608201518160030190816116ff9190612956565b5060808201518160040190816117159190612956565b509050506003339080600181540180825580915050600190039060005260206000200160009091909190916101000a81548173ffffffffffffffffffffffffffffffffffffffff021916908373ffffffffffffffffffffffffffffffffffffffff16021790555060018060003373ffffffffffffffffffffffffffffffffffffffff1673ffffffffffffffffffffffffffffffffffffffff16815260200190815260200160002060006101000a81548160ff0219169083151502179055503373ffffffffffffffffffffffffffffffffffffffff167f089c27d4261b0cf95d66cd4137781b61ad59901643cad23df1536eb9cda327e7603c836118189190612453565b8989898989896040516118319796959493929190612a64565b60405180910390a250505050505050565b600260003373ffffffffffffffffffffffffffffffffffffffff1673ffffffffffffffffffffffffffffffffffffffff16815260200190815260200160002060010160009054906101000a900460ff166118d1576040517f08c379a00000000000000000000000000000000000000000000000000000000081526004016118c890612b36565b60405180910390fd5b6000600260003373ffffffffffffffffffffffffffffffffffffffff1673ffffffffffffffffffffffffffffffffffffffff16815260200190815260200160002060010160006101000a81548160ff0219169083151502179055506000600160003373ffffffffffffffffffffffffffffffffffffffff1673ffffffffffffffffffffffffffffffffffffffff16815260200190815260200160002060006101000a81548160ff0219169083151502179055503373ffffffffffffffffffffffffffffffffffffffff167fae563681ccc696fae58fe830f401bc9c043a43ddb9f7c2830b32c3c70d9966e760405160405180910390a2565b600042905090565b6000808290506000805b8251811015611a60577f4000000000000000000000000000000000000000000000000000000000000000838281518110611a1857611a1761228b565b5b602001015160f81c60f81b7effffffffffffffffffffffffffffffffffffffffffffffffffffffffffffff191603611a535760019150611a60565b80806001019150506119db565b508092505050919050565b6040518060e00160405280600073ffffffffffffffffffffffffffffffffffffffff168152602001600081526020016000151581526020016060815260200160608152602001606081526020016000151581525090565b6000819050919050565b611ad581611ac2565b82525050565b6000602082019050611af06000830184611acc565b92915050565b600080fd5b600080fd5b611b0981611ac2565b8114611b1457600080fd5b50565b600081359050611b2681611b00565b92915050565b600060208284031215611b4257611b41611af6565b5b6000611b5084828501611b17565b91505092915050565b600073ffffffffffffffffffffffffffffffffffffffff82169050919050565b6000611b8482611b59565b9050919050565b611b9481611b79565b82525050565b6000602082019050611baf6000830184611b8b565b92915050565b611bbe81611b79565b8114611bc957600080fd5b50565b600081359050611bdb81611bb5565b92915050565b600060208284031215611bf757611bf6611af6565b5b6000611c0584828501611bcc565b91505092915050565b60008115159050919050565b611c2381611c0e565b82525050565b6000602082019050611c3e6000830184611c1a565b92915050565b600081519050919050565b600082825260208201905092915050565b60005b83811015611c7e578082015181840152602081019050611c63565b60008484015250505050565b6000601f19601f8301169050919050565b6000611ca682611c44565b611cb08185611c4f565b9350611cc0818560208601611c60565b611cc981611c8a565b840191505092915050565b600060a082019050611ce96000830188611c1a565b611cf66020830187611acc565b8181036040830152611d088186611c9b565b90508181036060830152611d1c8185611c9b565b90508181036080830152611d308184611c9b565b90509695505050505050565b600060a082019050611d516000830188611acc565b611d5e6020830187611c1a565b8181036040830152611d708186611c9b565b90508181036060830152611d848185611c9b565b90508181036080830152611d988184611c9b565b90509695505050505050565b6000611daf82611b59565b9050919050565b611dbf81611da4565b82525050565b6000602082019050611dda6000830184611db6565b92915050565b600081519050919050565b600082825260208201905092915050565b6000819050602082019050919050565b611e1581611b79565b82525050565b611e2481611ac2565b82525050565b611e3381611c0e565b82525050565b600082825260208201905092915050565b6000611e5582611c44565b611e5f8185611e39565b9350611e6f818560208601611c60565b611e7881611c8a565b840191505092915050565b600060e083016000830151611e9b6000860182611e0c565b506020830151611eae6020860182611e1b565b506040830151611ec16040860182611e2a565b5060608301518482036060860152611ed98282611e4a565b91505060808301518482036080860152611ef38282611e4a565b91505060a083015184820360a0860152611f0d8282611e4a565b91505060c0830151611f2260c0860182611e2a565b508091505092915050565b6000611f398383611e83565b905092915050565b6000602082019050919050565b6000611f5982611de0565b611f638185611deb565b935083602082028501611f7585611dfc565b8060005b85811015611fb15784840389528151611f928582611f2d565b9450611f9d83611f41565b925060208a01995050600181019050611f79565b50829750879550505050505092915050565b60006020820190508181036000830152611fdd8184611f4e565b905092915050565b600080fd5b600080fd5b600080fd5b60008083601f84011261200a57612009611fe5565b5b8235905067ffffffffffffffff81111561202757612026611fea565b5b60208301915083600182028301111561204357612042611fef565b5b9250929050565b6000806000806000806060878903121561206757612066611af6565b5b600087013567ffffffffffffffff81111561208557612084611afb565b5b61209189828a01611ff4565b9650965050602087013567ffffffffffffffff8111156120b4576120b3611afb565b5b6120c089828a01611ff4565b9450945050604087013567ffffffffffffffff8111156120e3576120e2611afb565b5b6120ef89828a01611ff4565b92509250509295509295509295565b7f4f6e6c7920746865206f776e65722063616e2063616c6c20746869732066756e60008201527f6374696f6e000000000000000000000000000000000000000000000000000000602082015250565b600061215a602583611c4f565b9150612165826120fe565b604082019050919050565b600060208201905081810360008301526121898161214d565b9050919050565b7f4e487b7100000000000000000000000000000000000000000000000000000000600052602260045260246000fd5b600060028204905060018216806121d757607f821691505b6020821081036121ea576121e9612190565b5b50919050565b7f4e6f20737562736372696265727320666f756e64000000000000000000000000600082015250565b6000612226601483611c4f565b9150612231826121f0565b602082019050919050565b6000602082019050818103600083015261225581612219565b9050919050565b7f4e487b7100000000000000000000000000000000000000000000000000000000600052604160045260246000fd5b7f4e487b7100000000000000000000000000000000000000000000000000000000600052603260045260246000fd5b7f596f75206d7573742068617665206120737562736372697074696f6e20746f2060008201527f6d616b652061207061796d656e74000000000000000000000000000000000000602082015250565b6000612316602e83611c4f565b9150612321826122ba565b604082019050919050565b6000602082019050818103600083015261234581612309565b9050919050565b7f496e636f727265637420737562736372697074696f6e20666565000000000000600082015250565b6000612382601a83611c4f565b915061238d8261234c565b602082019050919050565b600060208201905081810360008301526123b181612375565b9050919050565b7f5061796d656e74206e6f74206475652079657400000000000000000000000000600082015250565b60006123ee601383611c4f565b91506123f9826123b8565b602082019050919050565b6000602082019050818103600083015261241d816123e1565b9050919050565b7f4e487b7100000000000000000000000000000000000000000000000000000000600052601160045260246000fd5b600061245e82611ac2565b915061246983611ac2565b925082820190508082111561248157612480612424565b5b92915050565b600060408201905061249c6000830185611acc565b6124a96020830184611acc565b9392505050565b7f416c726561647920737562736372696265640000000000000000000000000000600082015250565b60006124e6601283611c4f565b91506124f1826124b0565b602082019050919050565b60006020820190508181036000830152612515816124d9565b9050919050565b7f456d61696c2063616e6e6f7420626520656d707479206f72206578636565642060008201527f3130302063686172616374657273000000000000000000000000000000000000602082015250565b6000612578602e83611c4f565b91506125838261251c565b604082019050919050565b600060208201905081810360008301526125a78161256b565b9050919050565b7f4669727374206e616d652063616e6e6f7420626520656d707479206f7220657860008201527f6365656420353020636861726163746572730000000000000000000000000000602082015250565b600061260a603283611c4f565b9150612615826125ae565b604082019050919050565b60006020820190508181036000830152612639816125fd565b9050919050565b7f4c617374206e616d652063616e6e6f7420626520656d707479206f722065786360008201527f6565642035302063686172616374657273000000000000000000000000000000602082015250565b600061269c603183611c4f565b91506126a782612640565b604082019050919050565b600060208201905081810360008301526126cb8161268f565b9050919050565b7f496e76616c696420656d61696c20666f726d6174000000000000000000000000600082015250565b6000612708601483611c4f565b9150612713826126d2565b602082019050919050565b60006020820190508181036000830152612737816126fb565b9050919050565b7f4164647265737320616c726561647920696e206c697374000000000000000000600082015250565b6000612774601783611c4f565b915061277f8261273e565b602082019050919050565b600060208201905081810360008301526127a381612767565b9050919050565b60008190508160005260206000209050919050565b60006020601f8301049050919050565b600082821b905092915050565b60006008830261280c7fffffffffffffffffffffffffffffffffffffffffffffffffffffffffffffffff826127cf565b61281686836127cf565b95508019841693508086168417925050509392505050565b6000819050919050565b600061285361284e61284984611ac2565b61282e565b611ac2565b9050919050565b6000819050919050565b61286d83612838565b6128816128798261285a565b8484546127dc565b825550505050565b600090565b612896612889565b6128a1818484612864565b505050565b5b818110156128c5576128ba60008261288e565b6001810190506128a7565b5050565b601f82111561290a576128db816127aa565b6128e4846127bf565b810160208510156128f3578190505b6129076128ff856127bf565b8301826128a6565b50505b505050565b600082821c905092915050565b600061292d6000198460080261290f565b1980831691505092915050565b6000612946838361291c565b9150826002028217905092915050565b61295f82611c44565b67ffffffffffffffff8111156129785761297761225c565b5b61298282546121bf565b61298d8282856128c9565b600060209050601f8311600181146129c057600084156129ae578287015190505b6129b8858261293a565b865550612a20565b601f1984166129ce866127aa565b60005b828110156129f6578489015182556001820191506020850194506020810190506129d1565b86831015612a135784890151612a0f601f89168261291c565b8355505b6001600288020188555050505b505050505050565b82818337600083830152505050565b6000612a438385611c4f565b9350612a50838584612a28565b612a5983611c8a565b840190509392505050565b6000608082019050612a79600083018a611acc565b8181036020830152612a8c81888a612a37565b90508181036040830152612aa1818688612a37565b90508181036060830152612ab6818486612a37565b905098975050505050505050565b7f596f75206d7573742068617665206120737562736372697074696f6e20746f2060008201527f756e737562736372696265000000000000000000000000000000000000000000602082015250565b6000612b20602b83611c4f565b9150612b2b82612ac4565b604082019050919050565b60006020820190508181036000830152612b4f81612b13565b905091905056fea264697066735822122066cdf415ae6804f739c2a0602521d39d8429ec5c82cefdd50f17f17fb8c5ef5c64736f6c634300081a0033",
  "linkReferences": {},
  "deployedLinkReferences": {}
}