{
  "_format": "hh-sol-artifact-1",
  "contractName": "SubscriptionService",
  "sourceName": "contracts/SubscriptionRepository.sol",
  "abi": [
    {
      "inputs": [
        {
          "internalType": "uint256",
          "name": "_subscriptionFee",
          "type": "uint256"
        }
      ],
      "stateMutability": "nonpayable",
      "type": "constructor"
    },
    {
      "anonymous": false,
      "inputs": [
        {
          "indexed": true,
          "internalType": "address",
          "name": "subscriber",
          "type": "address"
        },
        {
          "indexed": false,
          "internalType": "uint256",
          "name": "amount",
          "type": "uint256"
        },
        {
          "indexed": false,
          "internalType": "uint256",
          "name": "subscriptionDue",
          "type": "uint256"
        }
      ],
      "name": "Payment",
      "type": "event"
    },
    {
      "anonymous": false,
      "inputs": [
        {
          "indexed": true,
          "internalType": "address",
          "name": "subscriber",
          "type": "address"
        },
        {
          "indexed": false,
          "internalType": "uint256",
          "name": "subscriptionDue",
          "type": "uint256"
        },
        {
          "indexed": false,
          "internalType": "string",
          "name": "email",
          "type": "string"
        },
        {
          "indexed": false,
          "internalType": "string",
          "name": "firstName",
          "type": "string"
        },
        {
          "indexed": false,
          "internalType": "string",
          "name": "lastName",
          "type": "string"
        }
      ],
      "name": "Subscribed",
      "type": "event"
    },
    {
      "anonymous": false,
      "inputs": [
        {
          "indexed": true,
          "internalType": "address",
          "name": "subscriber",
          "type": "address"
        }
      ],
      "name": "Unsubscribed",
      "type": "event"
    },
    {
      "inputs": [
        {
          "internalType": "address",
          "name": "subscriber",
          "type": "address"
        }
      ],
      "name": "checkSubscription",
      "outputs": [
        {
          "internalType": "bool",
          "name": "isActive",
          "type": "bool"
        },
        {
          "internalType": "uint256",
          "name": "subscriptionDue",
          "type": "uint256"
        },
        {
          "internalType": "string",
          "name": "email",
          "type": "string"
        },
        {
          "internalType": "string",
          "name": "firstName",
          "type": "string"
        },
        {
          "internalType": "string",
          "name": "lastName",
          "type": "string"
        }
      ],
      "stateMutability": "view",
      "type": "function"
    },
    {
      "inputs": [],
      "name": "getAllSubscribers",
      "outputs": [
        {
          "components": [
            {
              "internalType": "address",
              "name": "subscriberAddress",
              "type": "address"
            },
            {
              "internalType": "uint256",
              "name": "subscriptionDue",
              "type": "uint256"
            },
            {
              "internalType": "bool",
              "name": "isSubscribed",
              "type": "bool"
            },
            {
              "internalType": "string",
              "name": "email",
              "type": "string"
            },
            {
              "internalType": "string",
              "name": "firstName",
              "type": "string"
            },
            {
              "internalType": "string",
              "name": "lastName",
              "type": "string"
            },
            {
              "internalType": "bool",
              "name": "isSubscriptionActive",
              "type": "bool"
            }
          ],
          "internalType": "struct SubscriptionService.SubscriberInfo[]",
          "name": "",
          "type": "tuple[]"
        }
      ],
      "stateMutability": "view",
      "type": "function"
    },
    {
      "inputs": [],
      "name": "isOwner",
      "outputs": [
        {
          "internalType": "bool",
          "name": "",
          "type": "bool"
        }
      ],
      "stateMutability": "view",
      "type": "function"
    },
    {
      "inputs": [
        {
          "internalType": "address",
          "name": "user",
          "type": "address"
        }
      ],
      "name": "isSubscribedUser",
      "outputs": [
        {
          "internalType": "bool",
          "name": "",
          "type": "bool"
        }
      ],
      "stateMutability": "view",
      "type": "function"
    },
    {
      "inputs": [],
      "name": "makePayment",
      "outputs": [],
      "stateMutability": "payable",
      "type": "function"
    },
    {
      "inputs": [],
      "name": "owner",
      "outputs": [
        {
          "internalType": "address",
          "name": "",
          "type": "address"
        }
      ],
      "stateMutability": "view",
      "type": "function"
    },
    {
      "inputs": [
        {
          "internalType": "string",
          "name": "email",
          "type": "string"
        },
        {
          "internalType": "string",
          "name": "firstName",
          "type": "string"
        },
        {
          "internalType": "string",
          "name": "lastName",
          "type": "string"
        }
      ],
      "name": "subscribe",
      "outputs": [],
      "stateMutability": "payable",
      "type": "function"
    },
    {
      "inputs": [
        {
          "internalType": "uint256",
          "name": "",
          "type": "uint256"
        }
      ],
      "name": "subscriberAddresses",
      "outputs": [
        {
          "internalType": "address",
          "name": "",
          "type": "address"
        }
      ],
      "stateMutability": "view",
      "type": "function"
    },
    {
      "inputs": [
        {
          "internalType": "address",
          "name": "",
          "type": "address"
        }
      ],
      "name": "subscribers",
      "outputs": [
        {
          "internalType": "uint256",
          "name": "subscriptionDue",
          "type": "uint256"
        },
        {
          "internalType": "bool",
          "name": "isSubscribed",
          "type": "bool"
        },
        {
          "internalType": "string",
          "name": "email",
          "type": "string"
        },
        {
          "internalType": "string",
          "name": "firstName",
          "type": "string"
        },
        {
          "internalType": "string",
          "name": "lastName",
          "type": "string"
        }
      ],
      "stateMutability": "view",
      "type": "function"
    },
    {
      "inputs": [],
      "name": "subscriptionFee",
      "outputs": [
        {
          "internalType": "uint256",
          "name": "",
          "type": "uint256"
        }
      ],
      "stateMutability": "view",
      "type": "function"
    },
    {
      "inputs": [],
      "name": "subscriptionPeriod",
      "outputs": [
        {
          "internalType": "uint256",
          "name": "",
          "type": "uint256"
        }
      ],
      "stateMutability": "view",
      "type": "function"
    },
    {
      "inputs": [],
      "name": "unsubscribe",
      "outputs": [],
      "stateMutability": "nonpayable",
      "type": "function"
    },
    {
      "inputs": [
        {
          "internalType": "uint256",
          "name": "newFee",
          "type": "uint256"
        }
      ],
      "name": "updateSubscriptionFee",
      "outputs": [],
      "stateMutability": "nonpayable",
      "type": "function"
    },
    {
      "inputs": [],
      "name": "withdrawFunds",
      "outputs": [],
      "stateMutability": "nonpayable",
      "type": "function"
    }
  ],
  "bytecode": "0x6080604052603c6002553480156200001657600080fd5b50604051620022ac380380620022ac83398181016040528101906200003c9190620000ca565b336000806101000a81548173ffffffffffffffffffffffffffffffffffffffff021916908373ffffffffffffffffffffffffffffffffffffffff1602179055508060018190555050620000fc565b600080fd5b6000819050919050565b620000a4816200008f565b8114620000b057600080fd5b50565b600081519050620000c48162000099565b92915050565b600060208284031215620000e357620000e26200008a565b5b6000620000f384828501620000b3565b91505092915050565b6121a0806200010c6000396000f3fe6080604052600436106100dd5760003560e01c80638da5cb5b1161007f578063b97ff11411610059578063b97ff114146102cc578063d8d79700146102f5578063f260d415146102ff578063fcae44841461031b576100dd565b80638da5cb5b1461024b5780638f32d59b14610276578063ac6d0fa4146102a1576100dd565b8063332a0aa2116100bb578063332a0aa21461014f57806341fe05f21461018c5780634f62647e146101c95780635745ae281461020a576100dd565b80630aa0a175146100e25780630ca2822c1461010d57806324600fc314610138575b600080fd5b3480156100ee57600080fd5b506100f7610332565b60405161010491906114a7565b60405180910390f35b34801561011957600080fd5b50610122610338565b60405161012f91906114a7565b60405180910390f35b34801561014457600080fd5b5061014d61033e565b005b34801561015b57600080fd5b5061017660048036038101906101719190611502565b610435565b6040516101839190611570565b60405180910390f35b34801561019857600080fd5b506101b360048036038101906101ae91906115b7565b610474565b6040516101c091906115ff565b60405180910390f35b3480156101d557600080fd5b506101f060048036038101906101eb91906115b7565b6104cd565b6040516102019594939291906116aa565b60405180910390f35b34801561021657600080fd5b50610231600480360381019061022c91906115b7565b610740565b604051610242959493929190611712565b60405180910390f35b34801561025757600080fd5b5061026061091b565b60405161026d9190611570565b60405180910390f35b34801561028257600080fd5b5061028b61093f565b60405161029891906115ff565b60405180910390f35b3480156102ad57600080fd5b506102b6610996565b6040516102c3919061195d565b60405180910390f35b3480156102d857600080fd5b506102f360048036038101906102ee9190611502565b610dae565b005b6102fd610e46565b005b61031960048036038101906103149190611ab4565b611086565b005b34801561032757600080fd5b50610330611308565b005b60015481565b60025481565b60008054906101000a900473ffffffffffffffffffffffffffffffffffffffff1673ffffffffffffffffffffffffffffffffffffffff163373ffffffffffffffffffffffffffffffffffffffff16146103cc576040517f08c379a00000000000000000000000000000000000000000000000000000000081526004016103c390611ba7565b60405180910390fd5b60008054906101000a900473ffffffffffffffffffffffffffffffffffffffff1673ffffffffffffffffffffffffffffffffffffffff166108fc479081150290604051600060405180830381858888f19350505050158015610432573d6000803e3d6000fd5b50565b6004818154811061044557600080fd5b906000526020600020016000915054906101000a900473ffffffffffffffffffffffffffffffffffffffff1681565b6000600360008373ffffffffffffffffffffffffffffffffffffffff1673ffffffffffffffffffffffffffffffffffffffff16815260200190815260200160002060010160009054906101000a900460ff169050919050565b60008060608060606000600360008873ffffffffffffffffffffffffffffffffffffffff1673ffffffffffffffffffffffffffffffffffffffff1681526020019081526020016000206040518060a0016040529081600082015481526020016001820160009054906101000a900460ff1615151515815260200160028201805461055690611bf6565b80601f016020809104026020016040519081016040528092919081815260200182805461058290611bf6565b80156105cf5780601f106105a4576101008083540402835291602001916105cf565b820191906000526020600020905b8154815290600101906020018083116105b257829003601f168201915b505050505081526020016003820180546105e890611bf6565b80601f016020809104026020016040519081016040528092919081815260200182805461061490611bf6565b80156106615780601f1061063657610100808354040283529160200191610661565b820191906000526020600020905b81548152906001019060200180831161064457829003601f168201915b5050505050815260200160048201805461067a90611bf6565b80601f01602080910402602001604051908101604052809291908181526020018280546106a690611bf6565b80156106f35780601f106106c8576101008083540402835291602001916106f3565b820191906000526020600020905b8154815290600101906020018083116106d657829003601f168201915b50505050508152505090506000816020015180156107145750816000015142105b905080826000015183604001518460600151856080015196509650965096509650505091939590929450565b60036020528060005260406000206000915090508060000154908060010160009054906101000a900460ff169080600201805461077c90611bf6565b80601f01602080910402602001604051908101604052809291908181526020018280546107a890611bf6565b80156107f55780601f106107ca576101008083540402835291602001916107f5565b820191906000526020600020905b8154815290600101906020018083116107d857829003601f168201915b50505050509080600301805461080a90611bf6565b80601f016020809104026020016040519081016040528092919081815260200182805461083690611bf6565b80156108835780601f1061085857610100808354040283529160200191610883565b820191906000526020600020905b81548152906001019060200180831161086657829003601f168201915b50505050509080600401805461089890611bf6565b80601f01602080910402602001604051908101604052809291908181526020018280546108c490611bf6565b80156109115780601f106108e657610100808354040283529160200191610911565b820191906000526020600020905b8154815290600101906020018083116108f457829003601f168201915b5050505050905085565b60008054906101000a900473ffffffffffffffffffffffffffffffffffffffff1681565b60008060009054906101000a900473ffffffffffffffffffffffffffffffffffffffff1673ffffffffffffffffffffffffffffffffffffffff163373ffffffffffffffffffffffffffffffffffffffff1614905090565b606060008054906101000a900473ffffffffffffffffffffffffffffffffffffffff1673ffffffffffffffffffffffffffffffffffffffff163373ffffffffffffffffffffffffffffffffffffffff1614610a26576040517f08c379a0000000000000000000000000000000000000000000000000000000008152600401610a1d90611ba7565b60405180910390fd5b600060048054905067ffffffffffffffff811115610a4757610a46611989565b5b604051908082528060200260200182016040528015610a8057816020015b610a6d611437565b815260200190600190039081610a655790505b50905060005b600480549050811015610da657600060048281548110610aa957610aa8611c27565b5b9060005260206000200160009054906101000a900473ffffffffffffffffffffffffffffffffffffffff1690506000600360008373ffffffffffffffffffffffffffffffffffffffff1673ffffffffffffffffffffffffffffffffffffffff1681526020019081526020016000206040518060a0016040529081600082015481526020016001820160009054906101000a900460ff16151515158152602001600282018054610b5790611bf6565b80601f0160208091040260200160405190810160405280929190818152602001828054610b8390611bf6565b8015610bd05780601f10610ba557610100808354040283529160200191610bd0565b820191906000526020600020905b815481529060010190602001808311610bb357829003601f168201915b50505050508152602001600382018054610be990611bf6565b80601f0160208091040260200160405190810160405280929190818152602001828054610c1590611bf6565b8015610c625780601f10610c3757610100808354040283529160200191610c62565b820191906000526020600020905b815481529060010190602001808311610c4557829003601f168201915b50505050508152602001600482018054610c7b90611bf6565b80601f0160208091040260200160405190810160405280929190818152602001828054610ca790611bf6565b8015610cf45780601f10610cc957610100808354040283529160200191610cf4565b820191906000526020600020905b815481529060010190602001808311610cd757829003601f168201915b5050505050815250509050600081602001518015610d155750816000015142105b90506040518060e001604052808473ffffffffffffffffffffffffffffffffffffffff16815260200183600001518152602001836020015115158152602001836040015181526020018360600151815260200183608001518152602001821515815250858581518110610d8b57610d8a611c27565b5b60200260200101819052505050508080600101915050610a86565b508091505090565b60008054906101000a900473ffffffffffffffffffffffffffffffffffffffff1673ffffffffffffffffffffffffffffffffffffffff163373ffffffffffffffffffffffffffffffffffffffff1614610e3c576040517f08c379a0000000000000000000000000000000000000000000000000000000008152600401610e3390611ba7565b60405180910390fd5b8060018190555050565b600360003373ffffffffffffffffffffffffffffffffffffffff1673ffffffffffffffffffffffffffffffffffffffff16815260200190815260200160002060010160009054906101000a900460ff16610ed5576040517f08c379a0000000000000000000000000000000000000000000000000000000008152600401610ecc90611ca2565b60405180910390fd5b6001543414610f19576040517f08c379a0000000000000000000000000000000000000000000000000000000008152600401610f1090611d0e565b60405180910390fd5b600360003373ffffffffffffffffffffffffffffffffffffffff1673ffffffffffffffffffffffffffffffffffffffff16815260200190815260200160002060000154421015610f9e576040517f08c379a0000000000000000000000000000000000000000000000000000000008152600401610f9590611d7a565b60405180910390fd5b60025442610fac9190611dc9565b600360003373ffffffffffffffffffffffffffffffffffffffff1673ffffffffffffffffffffffffffffffffffffffff168152602001908152602001600020600001819055503373ffffffffffffffffffffffffffffffffffffffff167f9643c1b5b172b26d5f028be7fe646349bd5e3cd9367bb18f9e825afa828b7d9334600360003373ffffffffffffffffffffffffffffffffffffffff1673ffffffffffffffffffffffffffffffffffffffff1681526020019081526020016000206000015460405161107c929190611dfd565b60405180910390a2565b60015434146110ca576040517f08c379a00000000000000000000000000000000000000000000000000000000081526004016110c190611d0e565b60405180910390fd5b600360003373ffffffffffffffffffffffffffffffffffffffff1673ffffffffffffffffffffffffffffffffffffffff16815260200190815260200160002060010160009054906101000a900460ff161561115a576040517f08c379a000000000000000000000000000000000000000000000000000000000815260040161115190611e72565b60405180910390fd5b6040518060a00160405280600254426111739190611dc9565b815260200160011515815260200184815260200183815260200182815250600360003373ffffffffffffffffffffffffffffffffffffffff1673ffffffffffffffffffffffffffffffffffffffff1681526020019081526020016000206000820151816000015560208201518160010160006101000a81548160ff021916908315150217905550604082015181600201908161120f919061203e565b506060820151816003019081611225919061203e565b50608082015181600401908161123b919061203e565b509050506004339080600181540180825580915050600190039060005260206000200160009091909190916101000a81548173ffffffffffffffffffffffffffffffffffffffff021916908373ffffffffffffffffffffffffffffffffffffffff1602179055503373ffffffffffffffffffffffffffffffffffffffff167f089c27d4261b0cf95d66cd4137781b61ad59901643cad23df1536eb9cda327e7600254426112e89190611dc9565b8585856040516112fb9493929190612110565b60405180910390a2505050565b600360003373ffffffffffffffffffffffffffffffffffffffff1673ffffffffffffffffffffffffffffffffffffffff16815260200190815260200160002060010160009054906101000a900460ff16611397576040517f08c379a000000000000000000000000000000000000000000000000000000000815260040161138e90611ca2565b60405180910390fd5b6000600360003373ffffffffffffffffffffffffffffffffffffffff1673ffffffffffffffffffffffffffffffffffffffff16815260200190815260200160002060010160006101000a81548160ff0219169083151502179055503373ffffffffffffffffffffffffffffffffffffffff167fae563681ccc696fae58fe830f401bc9c043a43ddb9f7c2830b32c3c70d9966e760405160405180910390a2565b6040518060e00160405280600073ffffffffffffffffffffffffffffffffffffffff168152602001600081526020016000151581526020016060815260200160608152602001606081526020016000151581525090565b6000819050919050565b6114a18161148e565b82525050565b60006020820190506114bc6000830184611498565b92915050565b6000604051905090565b600080fd5b600080fd5b6114df8161148e565b81146114ea57600080fd5b50565b6000813590506114fc816114d6565b92915050565b600060208284031215611518576115176114cc565b5b6000611526848285016114ed565b91505092915050565b600073ffffffffffffffffffffffffffffffffffffffff82169050919050565b600061155a8261152f565b9050919050565b61156a8161154f565b82525050565b60006020820190506115856000830184611561565b92915050565b6115948161154f565b811461159f57600080fd5b50565b6000813590506115b18161158b565b92915050565b6000602082840312156115cd576115cc6114cc565b5b60006115db848285016115a2565b91505092915050565b60008115159050919050565b6115f9816115e4565b82525050565b600060208201905061161460008301846115f0565b92915050565b600081519050919050565b600082825260208201905092915050565b60005b83811015611654578082015181840152602081019050611639565b60008484015250505050565b6000601f19601f8301169050919050565b600061167c8261161a565b6116868185611625565b9350611696818560208601611636565b61169f81611660565b840191505092915050565b600060a0820190506116bf60008301886115f0565b6116cc6020830187611498565b81810360408301526116de8186611671565b905081810360608301526116f28185611671565b905081810360808301526117068184611671565b90509695505050505050565b600060a0820190506117276000830188611498565b61173460208301876115f0565b81810360408301526117468186611671565b9050818103606083015261175a8185611671565b9050818103608083015261176e8184611671565b90509695505050505050565b600081519050919050565b600082825260208201905092915050565b6000819050602082019050919050565b6117af8161154f565b82525050565b6117be8161148e565b82525050565b6117cd816115e4565b82525050565b600082825260208201905092915050565b60006117ef8261161a565b6117f981856117d3565b9350611809818560208601611636565b61181281611660565b840191505092915050565b600060e08301600083015161183560008601826117a6565b50602083015161184860208601826117b5565b50604083015161185b60408601826117c4565b506060830151848203606086015261187382826117e4565b9150506080830151848203608086015261188d82826117e4565b91505060a083015184820360a08601526118a782826117e4565b91505060c08301516118bc60c08601826117c4565b508091505092915050565b60006118d3838361181d565b905092915050565b6000602082019050919050565b60006118f38261177a565b6118fd8185611785565b93508360208202850161190f85611796565b8060005b8581101561194b578484038952815161192c85826118c7565b9450611937836118db565b925060208a01995050600181019050611913565b50829750879550505050505092915050565b6000602082019050818103600083015261197781846118e8565b905092915050565b600080fd5b600080fd5b7f4e487b7100000000000000000000000000000000000000000000000000000000600052604160045260246000fd5b6119c182611660565b810181811067ffffffffffffffff821117156119e0576119df611989565b5b80604052505050565b60006119f36114c2565b90506119ff82826119b8565b919050565b600067ffffffffffffffff821115611a1f57611a1e611989565b5b611a2882611660565b9050602081019050919050565b82818337600083830152505050565b6000611a57611a5284611a04565b6119e9565b905082815260208101848484011115611a7357611a72611984565b5b611a7e848285611a35565b509392505050565b600082601f830112611a9b57611a9a61197f565b5b8135611aab848260208601611a44565b91505092915050565b600080600060608486031215611acd57611acc6114cc565b5b600084013567ffffffffffffffff811115611aeb57611aea6114d1565b5b611af786828701611a86565b935050602084013567ffffffffffffffff811115611b1857611b176114d1565b5b611b2486828701611a86565b925050604084013567ffffffffffffffff811115611b4557611b446114d1565b5b611b5186828701611a86565b9150509250925092565b7f4e6f742074686520636f6e7472616374206f776e657200000000000000000000600082015250565b6000611b91601683611625565b9150611b9c82611b5b565b602082019050919050565b60006020820190508181036000830152611bc081611b84565b9050919050565b7f4e487b7100000000000000000000000000000000000000000000000000000000600052602260045260246000fd5b60006002820490506001821680611c0e57607f821691505b602082108103611c2157611c20611bc7565b5b50919050565b7f4e487b7100000000000000000000000000000000000000000000000000000000600052603260045260246000fd5b7f4e6f742073756273637269626564000000000000000000000000000000000000600082015250565b6000611c8c600e83611625565b9150611c9782611c56565b602082019050919050565b60006020820190508181036000830152611cbb81611c7f565b9050919050565b7f496e636f727265637420737562736372697074696f6e20666565000000000000600082015250565b6000611cf8601a83611625565b9150611d0382611cc2565b602082019050919050565b60006020820190508181036000830152611d2781611ceb565b9050919050565b7f5061796d656e74206e6f74206475652079657400000000000000000000000000600082015250565b6000611d64601383611625565b9150611d6f82611d2e565b602082019050919050565b60006020820190508181036000830152611d9381611d57565b9050919050565b7f4e487b7100000000000000000000000000000000000000000000000000000000600052601160045260246000fd5b6000611dd48261148e565b9150611ddf8361148e565b9250828201905080821115611df757611df6611d9a565b5b92915050565b6000604082019050611e126000830185611498565b611e1f6020830184611498565b9392505050565b7f416c726561647920737562736372696265640000000000000000000000000000600082015250565b6000611e5c601283611625565b9150611e6782611e26565b602082019050919050565b60006020820190508181036000830152611e8b81611e4f565b9050919050565b60008190508160005260206000209050919050565b60006020601f8301049050919050565b600082821b905092915050565b600060088302611ef47fffffffffffffffffffffffffffffffffffffffffffffffffffffffffffffffff82611eb7565b611efe8683611eb7565b95508019841693508086168417925050509392505050565b6000819050919050565b6000611f3b611f36611f318461148e565b611f16565b61148e565b9050919050565b6000819050919050565b611f5583611f20565b611f69611f6182611f42565b848454611ec4565b825550505050565b600090565b611f7e611f71565b611f89818484611f4c565b505050565b5b81811015611fad57611fa2600082611f76565b600181019050611f8f565b5050565b601f821115611ff257611fc381611e92565b611fcc84611ea7565b81016020851015611fdb578190505b611fef611fe785611ea7565b830182611f8e565b50505b505050565b600082821c905092915050565b600061201560001984600802611ff7565b1980831691505092915050565b600061202e8383612004565b9150826002028217905092915050565b6120478261161a565b67ffffffffffffffff8111156120605761205f611989565b5b61206a8254611bf6565b612075828285611fb1565b600060209050601f8311600181146120a85760008415612096578287015190505b6120a08582612022565b865550612108565b601f1984166120b686611e92565b60005b828110156120de578489015182556001820191506020850194506020810190506120b9565b868310156120fb57848901516120f7601f891682612004565b8355505b6001600288020188555050505b505050505050565b60006080820190506121256000830187611498565b81810360208301526121378186611671565b9050818103604083015261214b8185611671565b9050818103606083015261215f8184611671565b90509594505050505056fea26469706673582212208f553bf9465cc3cc759a4001742a39d6d5fefaf756107f2d9a5391994f7ece1664736f6c63430008180033",
  "linkReferences": {},
  "deployedLinkReferences": {}
}