{
  "_format": "hh-sol-artifact-1",
  "contractName": "SubscriptionService",
  "sourceName": "contracts/SubscriptionRepository.sol",
  "abi": [
    {
      "inputs": [
        {
          "internalType": "uint256",
          "name": "_subscriptionFee",
          "type": "uint256"
        }
      ],
      "stateMutability": "nonpayable",
      "type": "constructor"
    },
    {
      "anonymous": false,
      "inputs": [
        {
          "indexed": true,
          "internalType": "address",
          "name": "subscriber",
          "type": "address"
        }
      ],
      "name": "Destroyed",
      "type": "event"
    },
    {
      "anonymous": false,
      "inputs": [
        {
          "indexed": true,
          "internalType": "address",
          "name": "subscriber",
          "type": "address"
        },
        {
          "indexed": false,
          "internalType": "uint256",
          "name": "amount",
          "type": "uint256"
        },
        {
          "indexed": false,
          "internalType": "uint256",
          "name": "subscriptionDue",
          "type": "uint256"
        }
      ],
      "name": "Payment",
      "type": "event"
    },
    {
      "anonymous": false,
      "inputs": [
        {
          "indexed": true,
          "internalType": "address",
          "name": "subscriber",
          "type": "address"
        },
        {
          "indexed": false,
          "internalType": "uint256",
          "name": "subscriptionDue",
          "type": "uint256"
        },
        {
          "indexed": false,
          "internalType": "string",
          "name": "email",
          "type": "string"
        },
        {
          "indexed": false,
          "internalType": "string",
          "name": "firstName",
          "type": "string"
        },
        {
          "indexed": false,
          "internalType": "string",
          "name": "lastName",
          "type": "string"
        }
      ],
      "name": "Subscribed",
      "type": "event"
    },
    {
      "anonymous": false,
      "inputs": [
        {
          "indexed": false,
          "internalType": "uint256",
          "name": "newFee",
          "type": "uint256"
        }
      ],
      "name": "SubscriptionFeeUpdated",
      "type": "event"
    },
    {
      "anonymous": false,
      "inputs": [
        {
          "indexed": true,
          "internalType": "address",
          "name": "subscriber",
          "type": "address"
        }
      ],
      "name": "Unsubscribed",
      "type": "event"
    },
    {
      "inputs": [
        {
          "internalType": "address",
          "name": "subscriber",
          "type": "address"
        }
      ],
      "name": "checkSubscription",
      "outputs": [
        {
          "internalType": "bool",
          "name": "isActive",
          "type": "bool"
        },
        {
          "internalType": "uint256",
          "name": "subscriptionDue",
          "type": "uint256"
        },
        {
          "internalType": "string",
          "name": "email",
          "type": "string"
        },
        {
          "internalType": "string",
          "name": "firstName",
          "type": "string"
        },
        {
          "internalType": "string",
          "name": "lastName",
          "type": "string"
        }
      ],
      "stateMutability": "view",
      "type": "function"
    },
    {
      "inputs": [],
      "name": "getAllSubscribers",
      "outputs": [
        {
          "components": [
            {
              "internalType": "address",
              "name": "subscriberAddress",
              "type": "address"
            },
            {
              "internalType": "uint256",
              "name": "subscriptionStart",
              "type": "uint256"
            },
            {
              "internalType": "uint256",
              "name": "subscriptionValidTill",
              "type": "uint256"
            },
            {
              "internalType": "uint256",
              "name": "subscriptionEnd",
              "type": "uint256"
            },
            {
              "internalType": "string",
              "name": "email",
              "type": "string"
            },
            {
              "internalType": "string",
              "name": "firstName",
              "type": "string"
            },
            {
              "internalType": "string",
              "name": "lastName",
              "type": "string"
            }
          ],
          "internalType": "struct SubscriptionService.SubscriptionHistory[]",
          "name": "",
          "type": "tuple[]"
        }
      ],
      "stateMutability": "view",
      "type": "function"
    },
    {
      "inputs": [
        {
          "internalType": "address",
          "name": "",
          "type": "address"
        }
      ],
      "name": "isAddressInList",
      "outputs": [
        {
          "internalType": "bool",
          "name": "",
          "type": "bool"
        }
      ],
      "stateMutability": "view",
      "type": "function"
    },
    {
      "inputs": [],
      "name": "isOwner",
      "outputs": [
        {
          "internalType": "bool",
          "name": "",
          "type": "bool"
        }
      ],
      "stateMutability": "view",
      "type": "function"
    },
    {
      "inputs": [
        {
          "internalType": "address",
          "name": "user",
          "type": "address"
        }
      ],
      "name": "isSubscribedUser",
      "outputs": [
        {
          "internalType": "bool",
          "name": "",
          "type": "bool"
        }
      ],
      "stateMutability": "view",
      "type": "function"
    },
    {
      "inputs": [],
      "name": "makePayment",
      "outputs": [],
      "stateMutability": "payable",
      "type": "function"
    },
    {
      "inputs": [],
      "name": "owner",
      "outputs": [
        {
          "internalType": "address payable",
          "name": "",
          "type": "address"
        }
      ],
      "stateMutability": "view",
      "type": "function"
    },
    {
      "inputs": [],
      "name": "selfDestructContract",
      "outputs": [],
      "stateMutability": "payable",
      "type": "function"
    },
    {
      "inputs": [
        {
          "internalType": "string",
          "name": "email",
          "type": "string"
        },
        {
          "internalType": "string",
          "name": "firstName",
          "type": "string"
        },
        {
          "internalType": "string",
          "name": "lastName",
          "type": "string"
        }
      ],
      "name": "subscribe",
      "outputs": [],
      "stateMutability": "payable",
      "type": "function"
    },
    {
      "inputs": [
        {
          "internalType": "uint256",
          "name": "",
          "type": "uint256"
        }
      ],
      "name": "subscriberAddresses",
      "outputs": [
        {
          "internalType": "address",
          "name": "",
          "type": "address"
        }
      ],
      "stateMutability": "view",
      "type": "function"
    },
    {
      "inputs": [
        {
          "internalType": "address",
          "name": "",
          "type": "address"
        }
      ],
      "name": "subscribers",
      "outputs": [
        {
          "internalType": "uint256",
          "name": "subscriptionDue",
          "type": "uint256"
        },
        {
          "internalType": "bool",
          "name": "isSubscribed",
          "type": "bool"
        },
        {
          "internalType": "string",
          "name": "email",
          "type": "string"
        },
        {
          "internalType": "string",
          "name": "firstName",
          "type": "string"
        },
        {
          "internalType": "string",
          "name": "lastName",
          "type": "string"
        }
      ],
      "stateMutability": "view",
      "type": "function"
    },
    {
      "inputs": [],
      "name": "subscriptionFee",
      "outputs": [
        {
          "internalType": "uint256",
          "name": "",
          "type": "uint256"
        }
      ],
      "stateMutability": "view",
      "type": "function"
    },
    {
      "inputs": [
        {
          "internalType": "address",
          "name": "",
          "type": "address"
        },
        {
          "internalType": "uint256",
          "name": "",
          "type": "uint256"
        }
      ],
      "name": "subscriptionHistories",
      "outputs": [
        {
          "internalType": "address",
          "name": "subscriberAddress",
          "type": "address"
        },
        {
          "internalType": "uint256",
          "name": "subscriptionStart",
          "type": "uint256"
        },
        {
          "internalType": "uint256",
          "name": "subscriptionValidTill",
          "type": "uint256"
        },
        {
          "internalType": "uint256",
          "name": "subscriptionEnd",
          "type": "uint256"
        },
        {
          "internalType": "string",
          "name": "email",
          "type": "string"
        },
        {
          "internalType": "string",
          "name": "firstName",
          "type": "string"
        },
        {
          "internalType": "string",
          "name": "lastName",
          "type": "string"
        }
      ],
      "stateMutability": "view",
      "type": "function"
    },
    {
      "inputs": [],
      "name": "subscriptionPeriod",
      "outputs": [
        {
          "internalType": "uint256",
          "name": "",
          "type": "uint256"
        }
      ],
      "stateMutability": "view",
      "type": "function"
    },
    {
      "inputs": [],
      "name": "unsubscribe",
      "outputs": [],
      "stateMutability": "nonpayable",
      "type": "function"
    },
    {
      "inputs": [
        {
          "internalType": "uint256",
          "name": "newFee",
          "type": "uint256"
        }
      ],
      "name": "updateSubscriptionFee",
      "outputs": [],
      "stateMutability": "nonpayable",
      "type": "function"
    },
    {
      "inputs": [],
      "name": "withdrawFunds",
      "outputs": [],
      "stateMutability": "nonpayable",
      "type": "function"
    }
  ],
  "bytecode": "0x60a06040526000600160006101000a81548160ff02191690831515021790555034801561002b57600080fd5b50604051613a99380380613a99833981810160405281019061004d91906100c9565b3373ffffffffffffffffffffffffffffffffffffffff1660808173ffffffffffffffffffffffffffffffffffffffff168152505080600081905550506100f6565b600080fd5b6000819050919050565b6100a681610093565b81146100b157600080fd5b50565b6000815190506100c38161009d565b92915050565b6000602082840312156100df576100de61008e565b5b60006100ed848285016100b4565b91505092915050565b608051613957610142600039600081816103ea015281816104e201528181610a5901528181610a7f01528181610d0c0152818161123c0152818161130b015261139901526139576000f3fe6080604052600436106100fe5760003560e01c80638f32d59b11610095578063b97ff11411610064578063b97ff1141461036d578063c1e232bd14610396578063d8d79700146103a0578063f260d415146103aa578063fcae4484146103c6576100fe565b80638f32d59b146102975780639aba046c146102c2578063aaa4048d146102ff578063ac6d0fa414610342576100fe565b806341fe05f2116100d157806341fe05f2146101ad5780634f62647e146101ea5780635745ae281461022b5780638da5cb5b1461026c576100fe565b80630aa0a175146101035780630ca2822c1461012e57806324600fc314610159578063332a0aa214610170575b600080fd5b34801561010f57600080fd5b506101186103dd565b6040516101259190612775565b60405180910390f35b34801561013a57600080fd5b506101436103e3565b6040516101509190612775565b60405180910390f35b34801561016557600080fd5b5061016e6103e8565b005b34801561017c57600080fd5b50610197600480360381019061019291906127c6565b610564565b6040516101a49190612834565b60405180910390f35b3480156101b957600080fd5b506101d460048036038101906101cf919061287b565b6105a3565b6040516101e191906128c3565b60405180910390f35b3480156101f657600080fd5b50610211600480360381019061020c919061287b565b6105fc565b60405161022295949392919061296e565b60405180910390f35b34801561023757600080fd5b50610252600480360381019061024d919061287b565b61087c565b6040516102639594939291906129d6565b60405180910390f35b34801561027857600080fd5b50610281610a57565b60405161028e9190612a5f565b60405180910390f35b3480156102a357600080fd5b506102ac610a7b565b6040516102b991906128c3565b60405180910390f35b3480156102ce57600080fd5b506102e960048036038101906102e4919061287b565b610ad1565b6040516102f691906128c3565b60405180910390f35b34801561030b57600080fd5b5061032660048036038101906103219190612a7a565b610af1565b6040516103399796959493929190612aba565b60405180910390f35b34801561034e57600080fd5b50610357610d08565b6040516103649190612d12565b60405180910390f35b34801561037957600080fd5b50610394600480360381019061038f91906127c6565b61123a565b005b61039e611309565b005b6103a86113d0565b005b6103c460048036038101906103bf9190612d99565b611b53565b005b3480156103d257600080fd5b506103db61235b565b005b60005481565b603c81565b7f000000000000000000000000000000000000000000000000000000000000000073ffffffffffffffffffffffffffffffffffffffff163373ffffffffffffffffffffffffffffffffffffffff1614610476576040517f08c379a000000000000000000000000000000000000000000000000000000000815260040161046d90612ebf565b60405180910390fd5b600160009054906101000a900460ff16156104c6576040517f08c379a00000000000000000000000000000000000000000000000000000000081526004016104bd90612f2b565b60405180910390fd5b60018060006101000a81548160ff0219169083151502179055507f000000000000000000000000000000000000000000000000000000000000000073ffffffffffffffffffffffffffffffffffffffff166108fc479081150290604051600060405180830381858888f19350505050158015610546573d6000803e3d6000fd5b506000600160006101000a81548160ff021916908315150217905550565b6005818154811061057457600080fd5b906000526020600020016000915054906101000a900473ffffffffffffffffffffffffffffffffffffffff1681565b6000600360008373ffffffffffffffffffffffffffffffffffffffff1673ffffffffffffffffffffffffffffffffffffffff16815260200190815260200160002060010160009054906101000a900460ff169050919050565b60008060608060606000600360008873ffffffffffffffffffffffffffffffffffffffff1673ffffffffffffffffffffffffffffffffffffffff1681526020019081526020016000206040518060a0016040529081600082015481526020016001820160009054906101000a900460ff1615151515815260200160028201805461068590612f7a565b80601f01602080910402602001604051908101604052809291908181526020018280546106b190612f7a565b80156106fe5780601f106106d3576101008083540402835291602001916106fe565b820191906000526020600020905b8154815290600101906020018083116106e157829003601f168201915b5050505050815260200160038201805461071790612f7a565b80601f016020809104026020016040519081016040528092919081815260200182805461074390612f7a565b80156107905780601f1061076557610100808354040283529160200191610790565b820191906000526020600020905b81548152906001019060200180831161077357829003601f168201915b505050505081526020016004820180546107a990612f7a565b80601f01602080910402602001604051908101604052809291908181526020018280546107d590612f7a565b80156108225780601f106107f757610100808354040283529160200191610822565b820191906000526020600020905b81548152906001019060200180831161080557829003601f168201915b50505050508152505090506000610837612667565b905060008260200151801561084f5750826000015182105b90508083600001518460400151856060015186608001519750975097509750975050505091939590929450565b60036020528060005260406000206000915090508060000154908060010160009054906101000a900460ff16908060020180546108b890612f7a565b80601f01602080910402602001604051908101604052809291908181526020018280546108e490612f7a565b80156109315780601f1061090657610100808354040283529160200191610931565b820191906000526020600020905b81548152906001019060200180831161091457829003601f168201915b50505050509080600301805461094690612f7a565b80601f016020809104026020016040519081016040528092919081815260200182805461097290612f7a565b80156109bf5780601f10610994576101008083540402835291602001916109bf565b820191906000526020600020905b8154815290600101906020018083116109a257829003601f168201915b5050505050908060040180546109d490612f7a565b80601f0160208091040260200160405190810160405280929190818152602001828054610a0090612f7a565b8015610a4d5780601f10610a2257610100808354040283529160200191610a4d565b820191906000526020600020905b815481529060010190602001808311610a3057829003601f168201915b5050505050905085565b7f000000000000000000000000000000000000000000000000000000000000000081565b60007f000000000000000000000000000000000000000000000000000000000000000073ffffffffffffffffffffffffffffffffffffffff163373ffffffffffffffffffffffffffffffffffffffff1614905090565b60026020528060005260406000206000915054906101000a900460ff1681565b60046020528160005260406000208181548110610b0d57600080fd5b9060005260206000209060070201600091509150508060000160009054906101000a900473ffffffffffffffffffffffffffffffffffffffff1690806001015490806002015490806003015490806004018054610b6990612f7a565b80601f0160208091040260200160405190810160405280929190818152602001828054610b9590612f7a565b8015610be25780601f10610bb757610100808354040283529160200191610be2565b820191906000526020600020905b815481529060010190602001808311610bc557829003601f168201915b505050505090806005018054610bf790612f7a565b80601f0160208091040260200160405190810160405280929190818152602001828054610c2390612f7a565b8015610c705780601f10610c4557610100808354040283529160200191610c70565b820191906000526020600020905b815481529060010190602001808311610c5357829003601f168201915b505050505090806006018054610c8590612f7a565b80601f0160208091040260200160405190810160405280929190818152602001828054610cb190612f7a565b8015610cfe5780601f10610cd357610100808354040283529160200191610cfe565b820191906000526020600020905b815481529060010190602001808311610ce157829003601f168201915b5050505050905087565b60607f000000000000000000000000000000000000000000000000000000000000000073ffffffffffffffffffffffffffffffffffffffff163373ffffffffffffffffffffffffffffffffffffffff1614610d98576040517f08c379a0000000000000000000000000000000000000000000000000000000008152600401610d8f90612ebf565b60405180910390fd5b600080600580549050905060005b81811015610e49576004600060058381548110610dc657610dc5612fab565b5b9060005260206000200160009054906101000a900473ffffffffffffffffffffffffffffffffffffffff1673ffffffffffffffffffffffffffffffffffffffff1673ffffffffffffffffffffffffffffffffffffffff1681526020019081526020016000208054905083610e3a9190613009565b92508080600101915050610da6565b5060008267ffffffffffffffff811115610e6657610e6561303d565b5b604051908082528060200260200182016040528015610e9f57816020015b610e8c612709565b815260200190600190039081610e845790505b509050600080600580549050905060005b8181101561122e57600060058281548110610ece57610ecd612fab565b5b9060005260206000200160009054906101000a900473ffffffffffffffffffffffffffffffffffffffff1690506000600460008373ffffffffffffffffffffffffffffffffffffffff1673ffffffffffffffffffffffffffffffffffffffff168152602001908152602001600020805480602002602001604051908101604052809291908181526020016000905b828210156111b857838290600052602060002090600702016040518060e00160405290816000820160009054906101000a900473ffffffffffffffffffffffffffffffffffffffff1673ffffffffffffffffffffffffffffffffffffffff1673ffffffffffffffffffffffffffffffffffffffff16815260200160018201548152602001600282015481526020016003820154815260200160048201805461100390612f7a565b80601f016020809104026020016040519081016040528092919081815260200182805461102f90612f7a565b801561107c5780601f106110515761010080835404028352916020019161107c565b820191906000526020600020905b81548152906001019060200180831161105f57829003601f168201915b5050505050815260200160058201805461109590612f7a565b80601f01602080910402602001604051908101604052809291908181526020018280546110c190612f7a565b801561110e5780601f106110e35761010080835404028352916020019161110e565b820191906000526020600020905b8154815290600101906020018083116110f157829003601f168201915b5050505050815260200160068201805461112790612f7a565b80601f016020809104026020016040519081016040528092919081815260200182805461115390612f7a565b80156111a05780601f10611175576101008083540402835291602001916111a0565b820191906000526020600020905b81548152906001019060200180831161118357829003601f168201915b50505050508152505081526020019060010190610f5c565b50505050905060005b815181101561121e578181815181106111dd576111dc612fab565b5b60200260200101518787815181106111f8576111f7612fab565b5b6020026020010181905250858061120e9061306c565b96505080806001019150506111c1565b5050508080600101915050610eb0565b50829550505050505090565b7f000000000000000000000000000000000000000000000000000000000000000073ffffffffffffffffffffffffffffffffffffffff163373ffffffffffffffffffffffffffffffffffffffff16146112c8576040517f08c379a00000000000000000000000000000000000000000000000000000000081526004016112bf90612ebf565b60405180910390fd5b806000819055507f514d329e05b942688b1a4faea81afa667f0b05e76ba9f908e8d7b17a8d8b4740816040516112fe9190612775565b60405180910390a150565b7f000000000000000000000000000000000000000000000000000000000000000073ffffffffffffffffffffffffffffffffffffffff163373ffffffffffffffffffffffffffffffffffffffff1614611397576040517f08c379a000000000000000000000000000000000000000000000000000000000815260040161138e90612ebf565b60405180910390fd5b7f000000000000000000000000000000000000000000000000000000000000000073ffffffffffffffffffffffffffffffffffffffff16ff5b600360003373ffffffffffffffffffffffffffffffffffffffff1673ffffffffffffffffffffffffffffffffffffffff16815260200190815260200160002060010160009054906101000a900460ff1661145f576040517f08c379a000000000000000000000000000000000000000000000000000000000815260040161145690613126565b60405180910390fd5b60005434146114a3576040517f08c379a000000000000000000000000000000000000000000000000000000000815260040161149a90613192565b60405180910390fd5b60006114ad612667565b9050600360003373ffffffffffffffffffffffffffffffffffffffff1673ffffffffffffffffffffffffffffffffffffffff16815260200190815260200160002060000154811015611534576040517f08c379a000000000000000000000000000000000000000000000000000000000815260040161152b906131fe565b60405180910390fd5b603c816115419190613009565b600360003373ffffffffffffffffffffffffffffffffffffffff1673ffffffffffffffffffffffffffffffffffffffff168152602001908152602001600020600001819055506000600460003373ffffffffffffffffffffffffffffffffffffffff1673ffffffffffffffffffffffffffffffffffffffff1681526020019081526020016000208054905011156116f95760006001600460003373ffffffffffffffffffffffffffffffffffffffff1673ffffffffffffffffffffffffffffffffffffffff16815260200190815260200160002080549050611623919061321e565b90506000600460003373ffffffffffffffffffffffffffffffffffffffff1673ffffffffffffffffffffffffffffffffffffffff168152602001908152602001600020828154811061167857611677612fab565b5b906000526020600020906007020160030154036116f75781600460003373ffffffffffffffffffffffffffffffffffffffff1673ffffffffffffffffffffffffffffffffffffffff16815260200190815260200160002082815481106116e1576116e0612fab565b5b9060005260206000209060070201600301819055505b505b600460003373ffffffffffffffffffffffffffffffffffffffff1673ffffffffffffffffffffffffffffffffffffffff1681526020019081526020016000206040518060e001604052803373ffffffffffffffffffffffffffffffffffffffff168152602001838152602001603c846117729190613009565b815260200160008152602001600360003373ffffffffffffffffffffffffffffffffffffffff1673ffffffffffffffffffffffffffffffffffffffff16815260200190815260200160002060020180546117cb90612f7a565b80601f01602080910402602001604051908101604052809291908181526020018280546117f790612f7a565b80156118445780601f1061181957610100808354040283529160200191611844565b820191906000526020600020905b81548152906001019060200180831161182757829003601f168201915b50505050508152602001600360003373ffffffffffffffffffffffffffffffffffffffff1673ffffffffffffffffffffffffffffffffffffffff168152602001908152602001600020600301805461189b90612f7a565b80601f01602080910402602001604051908101604052809291908181526020018280546118c790612f7a565b80156119145780601f106118e957610100808354040283529160200191611914565b820191906000526020600020905b8154815290600101906020018083116118f757829003601f168201915b50505050508152602001600360003373ffffffffffffffffffffffffffffffffffffffff1673ffffffffffffffffffffffffffffffffffffffff168152602001908152602001600020600401805461196b90612f7a565b80601f016020809104026020016040519081016040528092919081815260200182805461199790612f7a565b80156119e45780601f106119b9576101008083540402835291602001916119e4565b820191906000526020600020905b8154815290600101906020018083116119c757829003601f168201915b5050505050815250908060018154018082558091505060019003906000526020600020906007020160009091909190915060008201518160000160006101000a81548173ffffffffffffffffffffffffffffffffffffffff021916908373ffffffffffffffffffffffffffffffffffffffff1602179055506020820151816001015560408201518160020155606082015181600301556080820151816004019081611a8f91906133fe565b5060a0820151816005019081611aa591906133fe565b5060c0820151816006019081611abb91906133fe565b5050503373ffffffffffffffffffffffffffffffffffffffff167f9643c1b5b172b26d5f028be7fe646349bd5e3cd9367bb18f9e825afa828b7d9334600360003373ffffffffffffffffffffffffffffffffffffffff1673ffffffffffffffffffffffffffffffffffffffff16815260200190815260200160002060000154604051611b489291906134d0565b60405180910390a250565b6000543414611b97576040517f08c379a0000000000000000000000000000000000000000000000000000000008152600401611b8e90613192565b60405180910390fd5b600360003373ffffffffffffffffffffffffffffffffffffffff1673ffffffffffffffffffffffffffffffffffffffff16815260200190815260200160002060010160009054906101000a900460ff1615611c27576040517f08c379a0000000000000000000000000000000000000000000000000000000008152600401611c1e90613545565b60405180910390fd5b600086869050118015611c3e575060648686905011155b611c7d576040517f08c379a0000000000000000000000000000000000000000000000000000000008152600401611c74906135d7565b60405180910390fd5b600084849050118015611c94575060328484905011155b611cd3576040517f08c379a0000000000000000000000000000000000000000000000000000000008152600401611cca90613669565b60405180910390fd5b600082829050118015611cea575060328282905011155b611d29576040517f08c379a0000000000000000000000000000000000000000000000000000000008152600401611d20906136fb565b60405180910390fd5b611d7686868080601f016020809104026020016040519081016040528093929190818152602001838380828437600081840152601f19601f8201169050808301925050505050505061266f565b611db5576040517f08c379a0000000000000000000000000000000000000000000000000000000008152600401611dac90613767565b60405180910390fd5b600260003373ffffffffffffffffffffffffffffffffffffffff1673ffffffffffffffffffffffffffffffffffffffff16815260200190815260200160002060009054906101000a900460ff1615611e42576040517f08c379a0000000000000000000000000000000000000000000000000000000008152600401611e39906137d3565b60405180910390fd5b6000611e4c612667565b90506040518060a00160405280603c83611e669190613009565b815260200160011515815260200188888080601f016020809104026020016040519081016040528093929190818152602001838380828437600081840152601f19601f82011690508083019250505050505050815260200186868080601f016020809104026020016040519081016040528093929190818152602001838380828437600081840152601f19601f82011690508083019250505050505050815260200184848080601f016020809104026020016040519081016040528093929190818152602001838380828437600081840152601f19601f82011690508083019250505050505050815250600360003373ffffffffffffffffffffffffffffffffffffffff1673ffffffffffffffffffffffffffffffffffffffff1681526020019081526020016000206000820151816000015560208201518160010160006101000a81548160ff0219169083151502179055506040820151816002019081611fce91906133fe565b506060820151816003019081611fe491906133fe565b506080820151816004019081611ffa91906133fe565b509050506005339080600181540180825580915050600190039060005260206000200160009091909190916101000a81548173ffffffffffffffffffffffffffffffffffffffff021916908373ffffffffffffffffffffffffffffffffffffffff1602179055506001600260003373ffffffffffffffffffffffffffffffffffffffff1673ffffffffffffffffffffffffffffffffffffffff16815260200190815260200160002060006101000a81548160ff021916908315150217905550600460003373ffffffffffffffffffffffffffffffffffffffff1673ffffffffffffffffffffffffffffffffffffffff1681526020019081526020016000206040518060e001604052803373ffffffffffffffffffffffffffffffffffffffff168152602001838152602001603c846121329190613009565b81526020016000815260200189898080601f016020809104026020016040519081016040528093929190818152602001838380828437600081840152601f19601f82011690508083019250505050505050815260200187878080601f016020809104026020016040519081016040528093929190818152602001838380828437600081840152601f19601f82011690508083019250505050505050815260200185858080601f016020809104026020016040519081016040528093929190818152602001838380828437600081840152601f19601f82011690508083019250505050505050815250908060018154018082558091505060019003906000526020600020906007020160009091909190915060008201518160000160006101000a81548173ffffffffffffffffffffffffffffffffffffffff021916908373ffffffffffffffffffffffffffffffffffffffff16021790555060208201518160010155604082015181600201556060820151816003015560808201518160040190816122bd91906133fe565b5060a08201518160050190816122d391906133fe565b5060c08201518160060190816122e991906133fe565b5050503373ffffffffffffffffffffffffffffffffffffffff167f089c27d4261b0cf95d66cd4137781b61ad59901643cad23df1536eb9cda327e7603c836123319190613009565b89898989898960405161234a979695949392919061382f565b60405180910390a250505050505050565b600360003373ffffffffffffffffffffffffffffffffffffffff1673ffffffffffffffffffffffffffffffffffffffff16815260200190815260200160002060010160009054906101000a900460ff166123ea576040517f08c379a00000000000000000000000000000000000000000000000000000000081526004016123e190613901565b60405180910390fd5b60006123f4612667565b90506000600460003373ffffffffffffffffffffffffffffffffffffffff1673ffffffffffffffffffffffffffffffffffffffff168152602001908152602001600020805490509050600081111561256d5760006001600460003373ffffffffffffffffffffffffffffffffffffffff1673ffffffffffffffffffffffffffffffffffffffff16815260200190815260200160002080549050612497919061321e565b90506000600460003373ffffffffffffffffffffffffffffffffffffffff1673ffffffffffffffffffffffffffffffffffffffff16815260200190815260200160002082815481106124ec576124eb612fab565b5b9060005260206000209060070201600301540361256b5782600460003373ffffffffffffffffffffffffffffffffffffffff1673ffffffffffffffffffffffffffffffffffffffff168152602001908152602001600020828154811061255557612554612fab565b5b9060005260206000209060070201600301819055505b505b6000600360003373ffffffffffffffffffffffffffffffffffffffff1673ffffffffffffffffffffffffffffffffffffffff16815260200190815260200160002060010160006101000a81548160ff0219169083151502179055506000600260003373ffffffffffffffffffffffffffffffffffffffff1673ffffffffffffffffffffffffffffffffffffffff16815260200190815260200160002060006101000a81548160ff0219169083151502179055503373ffffffffffffffffffffffffffffffffffffffff167fae563681ccc696fae58fe830f401bc9c043a43ddb9f7c2830b32c3c70d9966e760405160405180910390a25050565b600042905090565b6000808290506000805b82518110156126fe577f40000000000000000000000000000000000000000000000000000000000000008382815181106126b6576126b5612fab565b5b602001015160f81c60f81b7effffffffffffffffffffffffffffffffffffffffffffffffffffffffffffff1916036126f157600191506126fe565b8080600101915050612679565b508092505050919050565b6040518060e00160405280600073ffffffffffffffffffffffffffffffffffffffff1681526020016000815260200160008152602001600081526020016060815260200160608152602001606081525090565b6000819050919050565b61276f8161275c565b82525050565b600060208201905061278a6000830184612766565b92915050565b600080fd5b600080fd5b6127a38161275c565b81146127ae57600080fd5b50565b6000813590506127c08161279a565b92915050565b6000602082840312156127dc576127db612790565b5b60006127ea848285016127b1565b91505092915050565b600073ffffffffffffffffffffffffffffffffffffffff82169050919050565b600061281e826127f3565b9050919050565b61282e81612813565b82525050565b60006020820190506128496000830184612825565b92915050565b61285881612813565b811461286357600080fd5b50565b6000813590506128758161284f565b92915050565b60006020828403121561289157612890612790565b5b600061289f84828501612866565b91505092915050565b60008115159050919050565b6128bd816128a8565b82525050565b60006020820190506128d860008301846128b4565b92915050565b600081519050919050565b600082825260208201905092915050565b60005b838110156129185780820151818401526020810190506128fd565b60008484015250505050565b6000601f19601f8301169050919050565b6000612940826128de565b61294a81856128e9565b935061295a8185602086016128fa565b61296381612924565b840191505092915050565b600060a08201905061298360008301886128b4565b6129906020830187612766565b81810360408301526129a28186612935565b905081810360608301526129b68185612935565b905081810360808301526129ca8184612935565b90509695505050505050565b600060a0820190506129eb6000830188612766565b6129f860208301876128b4565b8181036040830152612a0a8186612935565b90508181036060830152612a1e8185612935565b90508181036080830152612a328184612935565b90509695505050505050565b6000612a49826127f3565b9050919050565b612a5981612a3e565b82525050565b6000602082019050612a746000830184612a50565b92915050565b60008060408385031215612a9157612a90612790565b5b6000612a9f85828601612866565b9250506020612ab0858286016127b1565b9150509250929050565b600060e082019050612acf600083018a612825565b612adc6020830189612766565b612ae96040830188612766565b612af66060830187612766565b8181036080830152612b088186612935565b905081810360a0830152612b1c8185612935565b905081810360c0830152612b308184612935565b905098975050505050505050565b600081519050919050565b600082825260208201905092915050565b6000819050602082019050919050565b612b7381612813565b82525050565b612b828161275c565b82525050565b600082825260208201905092915050565b6000612ba4826128de565b612bae8185612b88565b9350612bbe8185602086016128fa565b612bc781612924565b840191505092915050565b600060e083016000830151612bea6000860182612b6a565b506020830151612bfd6020860182612b79565b506040830151612c106040860182612b79565b506060830151612c236060860182612b79565b5060808301518482036080860152612c3b8282612b99565b91505060a083015184820360a0860152612c558282612b99565b91505060c083015184820360c0860152612c6f8282612b99565b9150508091505092915050565b6000612c888383612bd2565b905092915050565b6000602082019050919050565b6000612ca882612b3e565b612cb28185612b49565b935083602082028501612cc485612b5a565b8060005b85811015612d005784840389528151612ce18582612c7c565b9450612cec83612c90565b925060208a01995050600181019050612cc8565b50829750879550505050505092915050565b60006020820190508181036000830152612d2c8184612c9d565b905092915050565b600080fd5b600080fd5b600080fd5b60008083601f840112612d5957612d58612d34565b5b8235905067ffffffffffffffff811115612d7657612d75612d39565b5b602083019150836001820283011115612d9257612d91612d3e565b5b9250929050565b60008060008060008060608789031215612db657612db5612790565b5b600087013567ffffffffffffffff811115612dd457612dd3612795565b5b612de089828a01612d43565b9650965050602087013567ffffffffffffffff811115612e0357612e02612795565b5b612e0f89828a01612d43565b9450945050604087013567ffffffffffffffff811115612e3257612e31612795565b5b612e3e89828a01612d43565b92509250509295509295509295565b7f4f6e6c7920746865206f776e65722063616e2063616c6c20746869732066756e60008201527f6374696f6e000000000000000000000000000000000000000000000000000000602082015250565b6000612ea96025836128e9565b9150612eb482612e4d565b604082019050919050565b60006020820190508181036000830152612ed881612e9c565b9050919050565b7f5265656e7472616e637947756172643a207265656e7472616e742063616c6c00600082015250565b6000612f15601f836128e9565b9150612f2082612edf565b602082019050919050565b60006020820190508181036000830152612f4481612f08565b9050919050565b7f4e487b7100000000000000000000000000000000000000000000000000000000600052602260045260246000fd5b60006002820490506001821680612f9257607f821691505b602082108103612fa557612fa4612f4b565b5b50919050565b7f4e487b7100000000000000000000000000000000000000000000000000000000600052603260045260246000fd5b7f4e487b7100000000000000000000000000000000000000000000000000000000600052601160045260246000fd5b60006130148261275c565b915061301f8361275c565b925082820190508082111561303757613036612fda565b5b92915050565b7f4e487b7100000000000000000000000000000000000000000000000000000000600052604160045260246000fd5b60006130778261275c565b91507fffffffffffffffffffffffffffffffffffffffffffffffffffffffffffffffff82036130a9576130a8612fda565b5b600182019050919050565b7f596f75206d7573742068617665206120737562736372697074696f6e20746f2060008201527f6d616b652061207061796d656e74000000000000000000000000000000000000602082015250565b6000613110602e836128e9565b915061311b826130b4565b604082019050919050565b6000602082019050818103600083015261313f81613103565b9050919050565b7f496e636f727265637420737562736372697074696f6e20666565000000000000600082015250565b600061317c601a836128e9565b915061318782613146565b602082019050919050565b600060208201905081810360008301526131ab8161316f565b9050919050565b7f5061796d656e74206e6f74206475652079657400000000000000000000000000600082015250565b60006131e86013836128e9565b91506131f3826131b2565b602082019050919050565b60006020820190508181036000830152613217816131db565b9050919050565b60006132298261275c565b91506132348361275c565b925082820390508181111561324c5761324b612fda565b5b92915050565b60008190508160005260206000209050919050565b60006020601f8301049050919050565b600082821b905092915050565b6000600883026132b47fffffffffffffffffffffffffffffffffffffffffffffffffffffffffffffffff82613277565b6132be8683613277565b95508019841693508086168417925050509392505050565b6000819050919050565b60006132fb6132f66132f18461275c565b6132d6565b61275c565b9050919050565b6000819050919050565b613315836132e0565b61332961332182613302565b848454613284565b825550505050565b600090565b61333e613331565b61334981848461330c565b505050565b5b8181101561336d57613362600082613336565b60018101905061334f565b5050565b601f8211156133b25761338381613252565b61338c84613267565b8101602085101561339b578190505b6133af6133a785613267565b83018261334e565b50505b505050565b600082821c905092915050565b60006133d5600019846008026133b7565b1980831691505092915050565b60006133ee83836133c4565b9150826002028217905092915050565b613407826128de565b67ffffffffffffffff8111156134205761341f61303d565b5b61342a8254612f7a565b613435828285613371565b600060209050601f8311600181146134685760008415613456578287015190505b61346085826133e2565b8655506134c8565b601f19841661347686613252565b60005b8281101561349e57848901518255600182019150602085019450602081019050613479565b868310156134bb57848901516134b7601f8916826133c4565b8355505b6001600288020188555050505b505050505050565b60006040820190506134e56000830185612766565b6134f26020830184612766565b9392505050565b7f416c726561647920737562736372696265640000000000000000000000000000600082015250565b600061352f6012836128e9565b915061353a826134f9565b602082019050919050565b6000602082019050818103600083015261355e81613522565b9050919050565b7f456d61696c2063616e6e6f7420626520656d707479206f72206578636565642060008201527f3130302063686172616374657273000000000000000000000000000000000000602082015250565b60006135c1602e836128e9565b91506135cc82613565565b604082019050919050565b600060208201905081810360008301526135f0816135b4565b9050919050565b7f4669727374206e616d652063616e6e6f7420626520656d707479206f7220657860008201527f6365656420353020636861726163746572730000000000000000000000000000602082015250565b60006136536032836128e9565b915061365e826135f7565b604082019050919050565b6000602082019050818103600083015261368281613646565b9050919050565b7f4c617374206e616d652063616e6e6f7420626520656d707479206f722065786360008201527f6565642035302063686172616374657273000000000000000000000000000000602082015250565b60006136e56031836128e9565b91506136f082613689565b604082019050919050565b60006020820190508181036000830152613714816136d8565b9050919050565b7f496e76616c696420656d61696c20666f726d6174000000000000000000000000600082015250565b60006137516014836128e9565b915061375c8261371b565b602082019050919050565b6000602082019050818103600083015261378081613744565b9050919050565b7f4164647265737320616c726561647920696e206c697374000000000000000000600082015250565b60006137bd6017836128e9565b91506137c882613787565b602082019050919050565b600060208201905081810360008301526137ec816137b0565b9050919050565b82818337600083830152505050565b600061380e83856128e9565b935061381b8385846137f3565b61382483612924565b840190509392505050565b6000608082019050613844600083018a612766565b818103602083015261385781888a613802565b9050818103604083015261386c818688613802565b90508181036060830152613881818486613802565b905098975050505050505050565b7f596f75206d7573742068617665206120737562736372697074696f6e20746f2060008201527f756e737562736372696265000000000000000000000000000000000000000000602082015250565b60006138eb602b836128e9565b91506138f68261388f565b604082019050919050565b6000602082019050818103600083015261391a816138de565b905091905056fea264697066735822122071a537aa8dfd0c51c58b6f50254b9056c75e10d2fc491ffa0840ae070559118564736f6c634300081a0033",
  "linkReferences": {},
  "deployedLinkReferences": {}
}